:100000000C9463000C948B000C948B000C941005E2
:100010000C9410050C9410050C948B000C948B0020
:100020000C948B000C948B000C948B000C948B0024
:100030000C948B000C948B000C948B000C948B0014
:100040000C946E040C948B000C94DE040C94B80495
:100050000C948B000C948B000C948B000C948B00F4
:100060000C948B000C948B0000000008000201002F
:100070000003040700000000000000000000000072
:1000800023002600290000000000240027002A0089
:1000900000000000250028002B00040404040404D0
:1000A0000404020202020202030303030303010227
:1000B00004081020408001020408102001020408F6
:1000C0001020D705140A11241FBECFEFD8E0DEBFE1
:1000D000CDBF14E0A0E0B1E0ECEAF0E202C0059090
:1000E0000D92A831B107D9F725E0A8E1B4E001C02D
:1000F0001D92A532B207E1F710E0C2E6D0E004C0DD
:100100002197FE010E94940BC136D107C9F70E94C6
:10011000B9060C9449100C9400003FB7F8948091F4
:10012000610490916204A0916304B091640426B5C7
:10013000A89B05C02F3F19F00196A11DB11D3FBF1F
:10014000BA2FA92F982F8827820F911DA11DB11DAD
:10015000BC01CD0142E0660F771F881F991F4A95A9
:10016000D1F70895DB0114964D915C9115976D912F
:100170007C91DC01ED91FC910280F381E02D0994EA
:10018000CF92DF92EF92FF920F931F93CF93DF9363
:100190006C017A018B01C0E0D0E0CE15DF0581F063
:1001A000D8016D918D01D601ED91FC910190F08106
:1001B000E02DC6010995892B11F02196EECF7E0125
:1001C000C701DF91CF911F910F91FF90EF90DF90CA
:1001D000CF900895FC01538D448D252F30E0842F5E
:1001E00090E0821B930B541710F0CF96089501975F
:1001F0000895FC01918D828D981761F0828DDF0149
:10020000A80FB11D5D968C91928D9F5F9F73928F09
:1002100090E008958FEF9FEF0895FC01918D828DFE
:10022000981731F0828DE80FF11D858D90E00895CB
:100230008FEF9FEF0895FC01918D228D892F90E023
:10024000805C9F4F821B91098F739927089585E6E3
:1002500094E00E941B0121E0892B09F420E0822F09
:100260000895FC01848DDF01A80FB11DA35ABF4F73
:100270002C91848D90E001968F739927848FA689A5
:10028000B7892C93A089B1898C91837080648C93F9
:10029000938D848D981306C00288F389E02D8081A8
:1002A0008F7D80830895EF92FF920F931F93CF93DA
:1002B000DF93EC0181E0888F9B8D8C8D981305C0B6
:1002C000E889F989808185FD26C0F62E0B8D10E026
:1002D0000F5F1F4F0F731127E02E8C8DE8120CC09B
:1002E0000FB607FCFACFE889F989808185FFF5CF41
:1002F000CE010E943101F1CF8B8DFE01E80FF11D7F
:10030000E35AFF4FF0829FB7F8940B8FEA89FB897D
:10031000808180620AC09FB7F894EE89FF8960836C
:10032000E889F98980818370806480839FBF81E040
:1003300090E0DF91CF911F910F91FF90EF90089582
:10034000CF93DF93EC01888D8823C9F0EA89FB897C
:10035000808185FD05C0A889B9898C9186FD0FC073
:100360000FB607FCF5CF808185FFF2CFA889B98948
:100370008C9185FFEDCFCE010E943101E7CFDF9157
:10038000CF91089580E090E0892B29F00E94270109
:1003900081110C940000089520915A0430915B045F
:1003A0002817390771F490915804809159049817CF
:1003B00041F0E0915804F0E0E85EFB4F808190E06E
:1003C00008958FEF9FEF089508951F93CF93DF93C4
:1003D000DC015C968D919C915D97009739F421E04A
:1003E00030E013963C932E9312973BC05196ED91BB
:1003F000FC91529750962C915097322F30951FB701
:100400005E964C915E97742F727041FD6095F894E2
:100410004081772311F0422B01C043234083EC013C
:100420002197F1F748E0508160FF02C0522B01C0D4
:1004300053235083EC012197F1F76695415099F7CA
:100440008081772319F08323808302C0282B2083A7
:100450001FBF5C968D919C915D970197F1F781E0AC
:1004600090E0DF91CF911F91089520915A0430912F
:100470005B042817390771F48091590420915804BE
:1004800090E0805C9F4F821B910960E470E00E94C5
:100490006C0B089580E090E0089520915A0430910B
:1004A0005B0428173907B9F49091580480915904D6
:1004B000981789F0E0915804F0E0E85EFB4F8081E6
:1004C0002091580430E02F5F3F4F2F733327209344
:1004D000580490E008958FEF9FEF089582E095E033
:1004E0000E9435021816190654F482E095E00E9425
:1004F0004D02682F85E694E00E945301EFCF0895E6
:100500008F929F92AF92BF92CF92DF92EF92FF9223
:100510006C010E946E020E946E020D2C000CEE080F
:10052000FF080E948D004B015C01C114D104E1045D
:10053000F104F1F00E948D00DC01CB0188199909CA
:10054000AA09BB09883E9340A105B10570F321E0DB
:10055000C21AD108E108F10888EE880E83E0981EDF
:10056000A11CB11CC114D104E104F10419F7DDCFC1
:10057000FF90EF90DF90CF90BF90AF909F908F90C3
:100580000C946E02089580E090E00895FC01808153
:1005900091810C94320C0E94810D0F931F93CF9385
:1005A000DF93EC0188819981009729F02A813B81B2
:1005B0002617370788F48B016F5F7F4F0E94BB0CB3
:1005C000009761F0998388831B830A832C813D8186
:1005D000232B11F4FC01108281E001C080E0DF9147
:1005E000CF911F910F910895EF92FF920F931F9358
:1005F000CF93DF93EC01198218821B821A821D822D
:100600001C828617970741F1FB01008111810115BA
:10061000110511F1E480F580B7010E94CD02288117
:10062000398181110DC02115310519F0C9010E94D0
:10063000320C198218821D821C821B821A820CC005
:10064000FD82EC82B801C901DF91CF911F910F911A
:10065000FF90EF900C948F0DDF91CF911F910F9130
:10066000FF90EF900895EF92FF920F931F93CF9317
:10067000DF93EC01198218821B821A821D821C8270
:100680006115710549F18B01FB0101900020E9F72B
:1006900031977F01E61AF70AB7010E94CD0228813F
:1006A000398181110DC02115310519F0C9010E9450
:1006B000320C198218821D821C821B821A820CC085
:1006C000FD82EC82B801C901DF91CF911F910F919A
:1006D000FF90EF900C948F0DDF91CF911F910F91B0
:1006E000FF90EF9008956115710579F0FB0101907D
:1006F0000020E9F73197AF01461B570BDC01ED9164
:10070000FC910280F381E02D099480E090E008954F
:10071000CF93DF93BC0185E694E00E94B200EC0128
:1007200067E372E085E694E00E9473038C0F9D1FDF
:10073000DF91CF910895CF93DF93BC0185E694E0DC
:100740000E947303EC0167E372E085E694E00E9487
:1007500073038C0F9D1FDF91CF9108954F925F928D
:100760006F927F928F929F92AF92BF92CF92DF92C1
:10077000EF92FF920F931F93CF93DF93CDB7DEB726
:10078000A1970FB6F894DEBF0FBECDBF8C016B01F1
:10079000770FEE08FF08F7FE2FC0DC01ED91FC910A
:1007A0000190F081E02D6DE209955C01222733274D
:1007B000A9012C193D094E095F0919A2FE01B19644
:1007C0007F019AE0492E512C612C712CCA01B9018C
:1007D000A30192010E943B0B605DD7016E937D01E6
:1007E000211531054105510589F7BD01C8010E9458
:1007F00073038A0D9B1D1EC0A701960119A2FE015D
:10080000B1967F018AE0882E912CA12CB12CCA01CF
:10081000B901A50194010E943B0B605DD7016E9365
:100820007D01211531054105510589F7BD01C8013B
:100830000E947303A1960FB6F894DEBF0FBECDBF22
:10084000DF91CF911F910F91FF90EF90DF90CF90AC
:10085000BF90AF909F908F907F906F905F904F90E0
:100860000895CF93DF93BC0185E694E00E94AE0328
:10087000EC0167E372E085E694E00E9473038C0F5D
:100880009D1FDF91CF9108950C94730385E694E04A
:100890000E94A0016EE271E085E694E00E944404AB
:1008A0006AE471E082E095E00E94440484E690E00E
:1008B0000C94800285E694E00E94A0016DE471E052
:1008C00085E694E00E9444046FE671E082E095E0E2
:1008D0000E94440488EE93E00C9480021F920F92D1
:1008E0000FB60F9211242F933F938F939F93AF9343
:1008F000BF9380915D0490915E04A0915F04B091DC
:10090000600430915C0423E0230F2D3720F401961E
:10091000A11DB11D05C026E8230F0296A11DB11D22
:1009200020935C0480935D0490935E04A0935F0425
:10093000B09360048091610490916204A09163047B
:10094000B09164040196A11DB11D80936104909340
:100950006204A0936304B0936404BF91AF919F912C
:100960008F913F912F910F900FBE0F901F90189570
:100970001F920F920FB60F9211242F933F934F9314
:100980005F936F937F938F939F93AF93BF93EF93F7
:10099000FF9385E694E00E943101FF91EF91BF91B2
:1009A000AF919F918F917F916F915F914F913F9107
:1009B0002F910F900FBE0F901F9018951F920F92BE
:1009C0000FB60F9211242F938F939F93EF93FF9362
:1009D000E0917504F09176048081E0917B04F091C0
:1009E0007C0482FD12C0908180917E048F5F8F73A2
:1009F00020917F04821751F0E0917E04F0E0EB59E2
:100A0000FB4F958F80937E0401C08081FF91EF9111
:100A10009F918F912F910F900FBE0F901F9018955F
:100A20001F920F920FB60F9211242F933F934F9363
:100A30005F936F937F938F939F93AF93BF93EF9346
:100A4000FF93E0915A04F0915B04309709F451C090
:100A5000968DA685B785858591FF04C09C918923D5
:100A600029F447C09C91892309F043C0A389B48924
:100A70009C918589809589238C9386899789019794
:100A8000F1F7608D718DA685B785558538E020E03A
:100A9000CB010197F1F7822F90E095958795282F4C
:100AA0004C91452309F02068315091F7868D81FDE6
:100AB00020958091590490E001968F739927309189
:100AC0005804381749F0A0915904B0E0A85EBB4F14
:100AD0002C938093590403C0868D8160868F828D0C
:100AE000938D0197F1F7A389B4899C918589892B0E
:100AF0008C93FF91EF91BF91AF919F918F917F91D7
:100B00006F915F914F913F912F910F900FBE0F907A
:100B10001F90189590E0FC01E859FF4F2491FC01CB
:100B2000E255FF4F3491FC01E656FF4FE491EE236E
:100B300009F43CC0222339F1233091F038F42130FC
:100B4000A9F0223001F584B58F7D12C0273091F0D5
:100B50002830A1F02430B9F4809180008F7D03C04B
:100B6000809180008F77809380000DC084B58F774F
:100B700084BD09C08091B0008F7703C08091B00020
:100B80008F7D8093B000F0E0EE0FFF1FE057FF4F26
:100B9000A591B4919FB7F894611104C08C913095E0
:100BA000382302C0EC913E2B3C939FBF0895CF9316
:100BB000DF93109268041092670488EE93E0A0E03F
:100BC000B0E08093690490936A04A0936B04B0939F
:100BD0006C042EE031E0309366042093650425EC2C
:100BE00030E0309372042093710424EC30E03093B1
:100BF00074042093730420EC30E030937604209347
:100C0000750421EC30E0309378042093770422ECD3
:100C100030E030937A042093790426EC30E030936E
:100C20007C0420937B0410927E0410927F04109227
:100C3000800410928104109205051092040580939F
:100C4000060590930705A0930805B093090580E277
:100C500091E090930305809302051092190510927C
:100C6000180510921B0510921A0510921D0510927E
:100C70001C0510921F0510921E05609120056E7FC5
:100C80006D7F609320056695617081E0682789E03B
:100C90000E948A05E7EBF0E02491E3EAF0E084911A
:100CA000882399F090E0880F991FFC01EA57FF4FC5
:100CB000A591B491FC01E057FF4F859194918FB7B6
:100CC000F894EC91E22BEC938FBFE7EBF0E0E4912A
:100CD000E0931205E3EAF0E0E491F0E0EE0FFF1F8D
:100CE000E057FF4F859194919093140580931305DD
:100CF000E6EBF0E02491E2EAF0E084918823C1F091
:100D000090E0880F991FFC01EA57FF4FC591D491DD
:100D1000FC01E057FF4FA591B4919FB7F8948881EB
:100D2000E22FE0958E2388838C91E823EC939FBF7C
:100D30008091200581FD04C061E088E00E948A0561
:100D400088E080930E05E6EBF0E0E491E0930F0578
:100D5000E2EAF0E0E491F0E0EE0FFF1FE458FF4F0D
:100D6000859194919093110580931005DF91CF9117
:100D70000895CF93DF93CDB7DEB7A8970FB6F89459
:100D8000DEBF0FBECDBF789484B5826084BD84B5CC
:100D9000816084BD85B5826085BD85B5816085BD76
:100DA00080916E00816080936E001092810080912E
:100DB00081008260809381008091810081608093B6
:100DC0008100809180008160809380008091B100DB
:100DD00084608093B1008091B00081608093B00006
:100DE00080917A00846080937A0080917A0082609A
:100DF00080937A0080917A00816080937A0080915C
:100E00007A00806880937A001092C100E0917504A6
:100E1000F091760482E08083E0917104F091720495
:100E20001082E0917304F091740480E18083109249
:100E30007D04E0917904F0917A0486E08083E0916A
:100E40007704F0917804808180618083E091770459
:100E5000F0917804808188608083E0917704F0913C
:100E60007804808180688083E0917704F091780431
:100E700080818F7D808368E771E085E694E00E9441
:100E8000440483E891E00E949B036BEC71E085E6EB
:100E900094E00E94440486ED91E00E949B0381E867
:100EA00091E00E949B0310921D0510921C05109268
:100EB0001B0510921A0510921905109218058DE95C
:100EC00091E090931F0580931E0590910E05963139
:100ED00008F058C02DEB30E0309319052093180529
:100EE0002BE931E030931B0520931A052CE231E009
:100EF00030931D0520931C0540916800983058F0F0
:100F000031E09E3008F430E021E0822F01C0880FEC
:100F10003A95EAF701C084E0842B8093680098300A
:100F200038F09E3040F0963148F020E030E008C0C4
:100F30002DE630E005C02BE630E002C02CE630E0C4
:100F40003093160520931505983030F481E001C0E8
:100F5000880F9A95EAF70EC0292F30E09E3018F4DA
:100F60002850310902C02E50310981E001C0880F9C
:100F70002A95EAF78093170580911E0590911F0529
:100F80000197F1F780911C0590911D05892B49F17E
:100F9000E0915A04F0915B0485E0E230F80709F132
:100FA000309739F0A389B4899C91858980958923EC
:100FB0008C93809120058E7F809320051092590498
:100FC0001092580482E095E090935B0480935A0459
:100FD000E0911505F0911605908180911705892BF8
:100FE000808362EE71E085E694E00E94440480E82C
:100FF00095E20E94310487E392E00E949B0387EF11
:1010000091E00E949B036AE471E082E095E00E9417
:1010100044040E9446040E945A040E9446046AE363
:1010200072E08E010F5F1F4FC8010E94330385E6F7
:1010300094E00E94A00162E472E085E694E00E94E0
:101040004404C8010E94880368E572E082E095E0EC
:101050000E944404B80182E095E00E94B20084E658
:1010600090E00E948002C8010E94C602DD24DA944A
:10107000DF9280EE8F9380E6E82E82E0F82EFF92DA
:10108000EF921F930F930E94960D85E694E00E94C5
:10109000A00167E672E085E694E00E944404C8017E
:1010A0000E949B036DE772E082E095E00E94440499
:1010B000B80182E095E00E94440484E690E00E943A
:1010C0008002DF9281EE8F93FF92EF921F930F9336
:1010D0000E94960D85E694E00E94A00165E872E00A
:1010E00085E694E00E944404C8010E949B036BE9DA
:1010F00072E082E095E00E944404B80182E095E04D
:101100000E94440484EF91E00E94800263EA72E04E
:10111000CE0141960E9433036CEA72E0CE014796FD
:101120000E94330365EB72E0CE014D960E943303BB
:101130006EEB72E0CE0183960E943303BE016D5DBB
:101140007F4FC8010E94F40285E694E00E94A0014E
:1011500067EC72E085E694E00E944404C8010E94B6
:1011600088036DED72E082E095E00E944404B801CE
:1011700082E095E00E94B20084E690E00E94800246
:10118000C8010E94C602BE01635E7F4FC8010E9473
:10119000F40285E694E00E94A00165EE72E085E627
:1011A00094E00E944404C8010E9488036BEF72E03F
:1011B00082E095E00E944404B80182E095E00E943C
:1011C000B20084E690E00E948002C8010E94C6023C
:1011D000BE01695E7F4FC8010E94F40285E694E07B
:1011E0000E94A00163E073E085E694E00E9444045D
:1011F000C8010E94880369E173E082E095E00E94E3
:101200004404B80182E095E00E94B20084E690E0D8
:101210000E948002C8010E94C602BE016F5E7F4F1D
:10122000C8010E94F40285E694E00E94A00161E2F8
:1012300073E085E694E00E944404C8010E9488039C
:1012400067E373E082E095E00E944404B80182E025
:1012500095E00E94B20084E690E00E948002C801FE
:101260000E94C602CE0183960E94C602CE014D9610
:101270000E94C602CE0147960E94C602CE01419648
:101280000E94C60285E694E00E94A0016FE373E02D
:1012900085E694E00E94440483E090E00E943104DB
:1012A00065E573E082E095E00E94440463E070E04D
:1012B00082E095E00E94AE0384E690E00E94800206
:1012C00085E694E00E94A0016DE573E085E694E078
:1012D0000E94440485E090E00E94310463E773E0DB
:1012E00082E095E00E94440465E070E082E095E0D1
:1012F0000E94AE0384E690E00E94800285E694E0BE
:101300000E94A0016BE773E085E694E00E9444042C
:1013100082E090E00E94310461E973E082E095E0B0
:101320000E94440462E070E082E095E00E94AE0317
:1013300084E690E00E94800285E694E00E94A0018D
:1013400069E973E085E694E00E94440481E090E05E
:101350000E9431046FEA73E082E095E00E94440449
:1013600061E070E082E095E00E94AE0384E690E0E8
:101370000E94800285E694E00E94A00167EB73E082
:1013800085E694E00E94440481E090E00E943104EC
:101390006DEC73E082E095E00E94440461E070E04F
:1013A00082E095E00E94AE0384E690E00E94800215
:1013B0000E945A048FB7F89440915D0450915E04E6
:1013C00060915F04709160048FBF87E392E00E9498
:1013D0009B0385ED93E00E949B0380E480937C0057
:1013E00080917A00806480937A000FB6F894DEBF13
:1013F0000FBECDBF80917A0086FDFCCF6091780052
:101400008091790070E0782B072E000C880B990BE7
:10141000611571058105910511F00E94C90A0E94AC
:101420006E020E94C201FBCF80E291E0909303051F
:101430008093020580915A0490915B0482509540FC
:1014400071F4E0911505F0911605908180911705D2
:1014500080958923808310925B0410925A0408952A
:101460008F929F92AF92BF92CF92DF92EF92FF92B4
:10147000CF93DF93EC01688179818A819B8161152B
:1014800071058105910521F464E279ED8BE597E022
:101490002DE133EF41E050E00E94D20A49015A01A8
:1014A0009B01AC01A7EAB1E40E94F10A6B017C0147
:1014B000ACEEB4EFA50194010E94FF0ADC01CB0160
:1014C0008C0D9D1DAE1DBF1DB7FF03C00197A10967
:1014D000B04888839983AA83BB83BC01CD019F77E1
:1014E000DF91CF91FF90EF90DF90CF90BF90AF90C2
:1014F0009F908F9008958F929F92AF92BF92CF92BC
:10150000DF92EF92FF926091000170910101809152
:10151000020190910301611571058105910521F486
:1015200064E279ED8BE597E02DE133EF41E050E0A7
:101530000E94D20A49015A019B01AC01A7EAB1E419
:101540000E94F10A6B017C01ACEEB4EFA50194019D
:101550000E94FF0ADC01CB018C0D9D1DAE1DBF1D3D
:10156000B7FF03C00197A109B04880930001909391
:101570000101A0930201B0930301BC01CD019F774B
:10158000FF90EF90DF90CF90BF90AF909F908F90A3
:10159000089560930001709301018093020190937C
:1015A00003010895052E97FB1EF400940E94E90A9A
:1015B00057FD07D00E943B0B07FC03D04EF40C9460
:1015C000E90A50954095309521953F4F4F4F5F4F19
:1015D000089590958095709561957F4F8F4F9F4F9F
:1015E00008950E945D0BA59F900DB49F900DA49F40
:1015F000800D911D11240895B7FF0C94F10A0E94EB
:10160000F10A821B930B08952F923F924F925F92A3
:101610006F927F928F929F92AF92BF92CF92DF9202
:10162000EF92FF920F931F93CF93DF93CDB7DEB767
:10163000CA1BDB0B0FB6F894DEBF0FBECDBF0994FB
:101640002A88398848885F846E847D848C849B8452
:10165000AA84B984C884DF80EE80FD800C811B8160
:10166000AA81B981CE0FD11D0FB6F894DEBF0FBE8F
:10167000CDBFED010895A1E21A2EAA1BBB1BFD01EF
:101680000DC0AA1FBB1FEE1FFF1FA217B307E40761
:10169000F50720F0A21BB30BE40BF50B661F771FB9
:1016A000881F991F1A9469F7609570958095909599
:1016B0009B01AC01BD01CF010895A29FB001B39F72
:1016C000C001A39F700D811D1124911DB29F700D4B
:1016D000811D1124911D089597FB072E16F4009487
:1016E00007D077FD09D00E94800B07FC05D03EF49F
:1016F000909581959F4F0895709561957F4F0895BE
:10170000AA1BBB1B51E107C0AA1FBB1FA617B70727
:1017100010F0A61BB70B881F991F5A95A9F7809543
:101720009095BC01CD010895EE0FFF1F0590F49137
:10173000E02D09940F931F93CF93DF93823091058F
:1017400010F482E090E0E0912305F091240520E080
:1017500030E0A0E0B0E0309719F140815181028182
:10176000138148175907C8F08417950769F4109733
:1017700031F012960C93129713961C9327C0009386
:1017800023051093240522C02115310519F04217B5
:10179000530718F49A01BD01EF01DF01F801DBCF17
:1017A00021153105F9F0281B390B2430310580F45F
:1017B0008A819B816115710521F0FB0193838283EE
:1017C00004C09093240580932305FE01329644C003
:1017D000FE01E20FF31F8193919322503109398367
:1017E00028833AC02091210530912205232B41F412
:1017F00020910601309107013093220520932105A5
:1018000020910401309105012115310541F42DB7D6
:101810003EB74091080150910901241B350BE0911E
:101820002105F0912205E217F307A0F42E1B3F0BD0
:101830002817390778F0AC014E5F5F4F2417350742
:1018400048F04E0F5F1F509322054093210581936E
:10185000919302C0E0E0F0E0CF01DF91CF911F91C2
:101860000F910895CF93DF93009709F481C0FC0195
:10187000329713821282A0912305B091240510970C
:1018800081F420813181820F931F209121053091B5
:1018900022052817390751F5F0932205E093210519
:1018A00067C0ED0120E030E0CE17DF0740F44A8149
:1018B0005B819E0141155105F1F0EA01F5CFD3831B
:1018C000C28340815181840F951FC817D90759F4ED
:1018D00088819981840F951F0296918380838A81E4
:1018E0009B81938382832115310529F4F09324058C
:1018F000E09323053DC0E901FB83EA8349915991B7
:10190000C40FD51FEC17FD0761F480819181840F0E
:10191000951F0296E90199838883828193819B8335
:101920008A83E0E0F0E012968D919C9113970097E6
:1019300019F0FD01DC01F7CF8D919C9111979D016C
:101940002E5F3F4F820F931F20912105309122057A
:101950002817390769F4309729F41092240510925A
:10196000230502C013821282B0932205A0932105A1
:10197000DF91CF910895A0E0B0E0E1ECFCE00C94A1
:10198000080BEC01009721F4CB010E949A0BB4C024
:10199000FC01E60FF71F9C0122503109E217F30703
:1019A00008F4A8C0D9010D911C91119706171707CB
:1019B000B0F00530110508F49BC0C80104978617E4
:1019C000970708F495C002501109061B170B0193E5
:1019D00011936D937C93CF010E94320C89C05B01FF
:1019E000A01AB10A4C01800E911EA0912305B0915E
:1019F0002405612C712CE12CF12C109709F446C0C0
:101A00008D919C911197A815B905B1F56C0142E033
:101A1000C40ED11CCA14DB0478F14C018A189B084F
:101A2000640142E0C40ED11C1296BC90129713962A
:101A3000AC91B5E0CB16D10440F0B282A383918281
:101A40008082D9016D937C9309C00E5F1F4F800F78
:101A5000911FF90191838083EB2DFA2FE114F1049A
:101A600031F0D7011396FC93EE93129741C0F09397
:101A70002405E09323053CC06816790608F43C0170
:101A80007D0112960D90BC91A02DB7CF80912105BC
:101A90009091220588169906E1F466167706C8F437
:101AA0008091040190910501009741F48DB79EB794
:101AB0004091080150910901841B950BE817F90723
:101AC000C8F4F0932205E0932105F9017183608346
:101AD0000FC0CB010E949A0B7C01009759F0A8011E
:101AE000BE010E94860DCE010E94320CC70104C0C7
:101AF000CE0102C080E090E0CDB7DEB7EEE00C94FE
:101B0000240B81E090E0F8940C944910FB01DC0177
:101B100002C001900D9241505040D8F70895FB014A
:101B2000DC0101900D920020E1F70895AEE0B0E0F5
:101B3000ECE9FDE00C94120B0D891E8986E08C8384
:101B40001A8309838FEF9FE79E838D83AE01475EE3
:101B50005F4F6F89788DCE0101960E94B80DEF819D
:101B6000F885E00FF11F10822E96E4E00C942E0B06
:101B7000ABE0B0E0EEEBFDE00C94040B6C017B01FC
:101B80008A01FC0117821682838181FFCCC1CE01BC
:101B900001963C01F6019381F70193FD859193FF36
:101BA00081917F01882309F4BAC1853239F493FD0C
:101BB000859193FF81917F01853229F4B60190E0F0
:101BC0000E94AF0FE7CF912C212C312CFFE1F315B0
:101BD000D8F08B3279F038F4803279F08332A1F486
:101BE000232D20611DC08D3261F0803369F4232DD7
:101BF000216016C0832D8260382EE32DE4603E2ED6
:101C00002AC0F32DF8601DC037FC2DC020ED280F31
:101C10002A3040F08E32B9F436FC81C1232D206485
:101C2000322E19C036FE06C08AE0989E200D11247F
:101C3000922E11C0EAE02E9E200D1124222EF32DAB
:101C4000F0623F2E08C08C3621F4832D8068382E38
:101C500002C0883641F4F70193FD859193FF81918D
:101C60007F018111B3CF982F9F7D9554933028F435
:101C70000C5F1F4F9FE399830DC0833631F083378C
:101C800071F0833509F059C021C0F8018081898342
:101C90000E5F1F4F88248394912C530113C0280199
:101CA000F2E04F0E511CF801A080B18036FE03C057
:101CB000692D70E002C06FEF7FEFC5010E94A40F95
:101CC0004C018201F32DFF773F2E16C0280122E040
:101CD000420E511CF801A080B18036FE03C0692D70
:101CE00070E002C06FEF7FEFC5010E94990F4C01B9
:101CF000F32DF0683F2E820133FC1BC0822D90E053
:101D000088169906B0F4B60180E290E00E94AF0F09
:101D10002A94F4CFF50137FC859137FE81915F015C
:101D2000B60190E00E94AF0F21102A9421E0821AA0
:101D300091088114910471F7E8C0843611F0893656
:101D400041F5F80137FE07C060817181828193817E
:101D50000C5F1F4F08C060817181072E000C880B3B
:101D6000990B0E5F1F4FF32DFF763F2E97FF09C093
:101D700090958095709561957F4F8F4F9F4FF0683C
:101D80003F2E2AE030E0A3010E94EB0F882E861838
:101D900045C0853731F4232D2F7EB22E2AE030E066
:101DA00025C0932D997FB92E8F36C1F018F4883550
:101DB00079F0B5C0803719F0883721F0B0C0E92F2D
:101DC000E061BE2EB4FE0DC0FB2DF460BF2E09C035
:101DD00034FE0AC0292F2660B22E06C028E030E06B
:101DE00005C020E130E002C020E132E0F801B7FE9A
:101DF00007C060817181828193810C5F1F4F06C093
:101E00006081718180E090E00E5F1F4FA3010E940E
:101E1000EB0F882E8618FB2DFF773F2E36FE0DC068
:101E2000232D2E7FA22E891458F434FE0BC032FCD1
:101E300009C0832D8E7EA82E05C0B82CA32C03C00C
:101E4000B82C01C0B92CA4FE0FC0FE01E80DF11D95
:101E50008081803321F49A2D997EA92E09C0A2FE9B
:101E600006C0B394B39404C08A2D867809F0B39465
:101E7000A3FC11C0A0FE06C0B21488F4280C922C5A
:101E80009B180EC0B21460F4B60180E290E00E948C
:101E9000AF0FB394F7CFB21418F42B1802C0982CDC
:101EA000212CA4FE10C0B60180E390E00E94AF0F89
:101EB000A2FE17C0A1FC03C088E790E002C088E53D
:101EC00090E0B6010CC08A2D867859F0A1FE02C0C0
:101ED0008BE201C080E2A7FC8DE2B60190E00E9497
:101EE000AF0F891438F4B60180E390E00E94AF0F81
:101EF0009A94F7CF8A94F301E80DF11D8081B60121
:101F000090E00E94AF0F8110F5CF222009F442CE5D
:101F1000B60180E290E00E94AF0F2A94F6CFF6015E
:101F20008681978102C08FEF9FEF2B96E2E10C94A0
:101F3000200BFC010590615070400110D8F780958E
:101F400090958E0F9F1F0895FC0161507040019085
:101F50000110D8F7809590958E0F9F1F08950F93CD
:101F60001F93CF93DF93FB01238121FD03C08FEFEC
:101F70009FEF2CC022FF16C04681578124813581F6
:101F80004217530744F4A081B1819D012F5F3F4F59
:101F9000318320838C93268137812F5F3F4F378396
:101FA000268314C08B01EC01FB010084F185E02D38
:101FB0000995892BE1F6D80116968D919C9117977A
:101FC000019617969C938E931697CE01DF91CF9131
:101FD0001F910F910895FA01AA27283051F120315D
:101FE00081F1E8946F936E7F6E5F7F4F8F4F9F4FAD
:101FF000AF4FB1E03ED0B4E03CD0670F781F891FEF
:102000009A1FA11D680F791F8A1F911DA11D6A0FBC
:10201000711D811D911DA11D20D009F468943F916F
:102020002AE0269F11243019305D3193DEF6CF016E
:102030000895462F4770405D4193B3E00FD0C9F734
:10204000F6CF462F4F70405D4A3318F0495D31FDA1
:102050004052419302D0A9F7EACFB4E0A6959795F4
:10206000879577956795BA95C9F7009761057105CA
:1020700008959B01AC010A2E069457954795379514
:102080002795BA95C9F7620F731F841F951FA01D6E
:10209000089510E0C2E6D0E004C0FE010E94940B57
:0C20A0002196C336D107C9F7F894FFCF92
:1020AC000100000000002505800000000000530125
:1020BC00C000EA00A0011B01F9000D0100000000A6
:1020CC00E501C000C302E40135024D02CC010D0A4A
:1020DC003E2073656E64696E6720636F6D6D616E13
:1020EC0064203A204154200D0A004154000D0A3E50
:1020FC002073656E64696E6720636F6D6D616E64CD
:10210C00203A2041542B5245534554200D0A00418E
:10211C00542B524553455400536B657463683A20F5
:10212C002020002F686F6D652F68616E64696B6F7E
:10213C002F69426561636F6E2F416475696E6F2DF7
:10214C00536B6574636865732F5374617469635F53
:10215C0069426561636F6E2F5374617469635F6963
:10216C00426561636F6E2E696E6F0055706C6F61A6
:10217C006465643A20004A616E203135203230317A
:10218C003900425473657269616C207374617274A6
:10219C00656420617420000D0A2E2E2E2E2E2E2EFC
:1021AC002E2E2E2E2E2E2E2E2E2E2E20496E697475
:1021BC0069616C697A696E6720706172616D6574B2
:1021CC00657273202E2E2E2E2E2E2E2E2E2E2E2E71
:1021DC002E2E2E2E2E2E200D0A0068616E64696B39
:1021EC006F000D0A3E2073656E64696E6720636F25
:1021FC006D6D616E64203A2041542B4E414D45006B
:10220C00307825303458000D0A3E2073656E6469B1
:10221C006E6720636F6D6D616E64203A2041542BA4
:10222C004D41524A000D0A3E2073656E64696E671B
:10223C0020636F6D6D616E64203A2041542B4D49C3
:10224C004E4F00414630353939333500384630432E
:10225C00373230450042363434343532300037347E
:10226C00323738424441000D0A3E2073656E646972
:10227C006E6720636F6D6D616E64203A2041542B44
:10228C0049424530000D0A3E2073656E64696E67E5
:10229C0020636F6D6D616E64203A2041542B49426E
:1022AC004531000D0A3E2073656E64696E672063CC
:1022BC006F6D6D616E64203A2041542B494245325A
:1022CC00000D0A3E2073656E64696E6720636F6D46
:1022DC006D616E64203A2041542B49424533000D08
:1022EC000A3E2073656E64696E6720636F6D6D6165
:1022FC006E64203A2041542B41445459000D0A3E3F
:10230C002073656E64696E6720636F6D6D616E64BA
:10231C00203A2041542B41445649000D0A3E20736B
:10232C00656E64696E6720636F6D6D616E64203AD3
:10233C002041542B504F5745000D0A3E2073656EBB
:10234C0064696E6720636F6D6D616E64203A204125
:10235C00542B5057524D000D0A3E2073656E646924
:10236C006E6720636F6D6D616E64203A2041542B53
:10237C0049424541000D0A2E2E2E2E2E2E2E2E2E8B
:10238C002E2E2E2E2E2E2E2E2E2E2E2E2E2E2E2E61
:10239C002E205374616E6279202E2E2E2E2E2E2E10
:1023AC002E2E2E2E2E2E2E2E2E2E2E2E2E2E2E2E41
:0823BC002E2E2E200D0A000058
:107E0000112484B714BE81FFF0D085E080938100F7
:107E100082E08093C00088E18093C10086E0809377
:107E2000C20080E18093C4008EE0C9D0259A86E02C
:107E300020E33CEF91E0309385002093840096BBD3
:107E4000B09BFECF1D9AA8958150A9F7CC24DD24C4
:107E500088248394B5E0AB2EA1E19A2EF3E0BF2EE7
:107E6000A2D0813461F49FD0082FAFD0023811F036
:107E7000013811F484E001C083E08DD089C08234E0
:107E800011F484E103C0853419F485E0A6D080C0E4
:107E9000853579F488D0E82EFF2485D0082F10E0AE
:107EA000102F00270E291F29000F111F8ED06801E7
:107EB0006FC0863521F484E090D080E0DECF843638
:107EC00009F040C070D06FD0082F6DD080E0C81688
:107ED00080E7D80618F4F601B7BEE895C0E0D1E017
:107EE00062D089930C17E1F7F0E0CF16F0E7DF06D8
:107EF00018F0F601B7BEE89568D007B600FCFDCFD4
:107F0000A601A0E0B1E02C9130E011968C91119780
:107F100090E0982F8827822B932B1296FA010C0160
:107F200087BEE89511244E5F5F4FF1E0A038BF0790
:107F300051F7F601A7BEE89507B600FCFDCF97BE46
:107F4000E89526C08437B1F42ED02DD0F82E2BD052
:107F50003CD0F601EF2C8F010F5F1F4F84911BD097
:107F6000EA94F801C1F70894C11CD11CFA94CF0C13
:107F7000D11C0EC0853739F428D08EE10CD085E9AC
:107F80000AD08FE07ACF813511F488E018D01DD067
:107F900080E101D065CF982F8091C00085FFFCCF94
:107FA0009093C60008958091C00087FFFCCF809118
:107FB000C00084FD01C0A8958091C6000895E0E648
:107FC000F0E098E1908380830895EDDF803219F02E
:107FD00088E0F5DFFFCF84E1DECF1F93182FE3DFCA
:107FE0001150E9F7F2DF1F91089580E0E8DFEE27F6
:047FF000FF270994CA
:027FFE00040479
:0400000300007E007B
:00000001FF
