:100000000C9463000C948B000C948B000C94AE0346
:100010000C94AE030C94AE030C948B000C948B00E8
:100020000C948B000C948B000C948B000C948B0024
:100030000C948B000C948B000C948B000C948B0014
:100040000C94A8020C948B000C947C030C94560323
:100050000C948B000C948B000C948B000C948B00F4
:100060000C948B000C948B0000000008000201002F
:100070000003040700000000000000000000000072
:1000800023002600290000000000240027002A0089
:1000900000000000250028002B00040404040404D0
:1000A0000404020202020202030303030303010227
:1000B00004081020408001020408102001020408F6
:1000C0001020460BDD0A11241FBECFEFD8E0DEBFA3
:1000D000CDBF14E0A0E0B1E0ECE9F4E202C005908D
:1000E0000D92A435B107D9F725E0A4E5B4E001C02D
:1000F0001D92A536B207E1F710E0C2E6D0E004C0D9
:100100002197FE010E948C0DC136D107C9F70E94CC
:1001100028070C9441120C940000CF92DF92EF92CA
:10012000FF920F931F93CF93DF936C017A018B01A2
:10013000C0E0D0E0CE15DF0581F0D8016D918D01D2
:10014000D601ED91FC910190F081E02DC601099559
:10015000892B11F02196EECF7E01C701DF91CF915F
:100160001F910F91FF90EF90DF90CF900895FC01C9
:10017000538D448D252F30E0842F90E0821B930B0C
:10018000541710F0CF96089501970895FC01918DB2
:10019000828D981761F0828DDF01A80FB11D5D96E9
:1001A0008C91928D9F5F9F73928F90E008958FEF57
:1001B0009FEF0895FC01918D828D981731F0828D0B
:1001C000E80FF11D858D90E008958FEF9FEF089562
:1001D000FC01918D228D892F90E0805C9F4F821BC6
:1001E00091098F739927089585EA94E00E94E800A9
:1001F00021E0892B09F420E0822F0895FC01848DF1
:10020000DF01A80FB11DA35ABF4F2C91848D90E040
:1002100001968F739927848FA689B7892C93A0891B
:10022000B1898C91837080648C93938D848D9813A5
:1002300006C00288F389E02D80818F7D8083089538
:10024000EF92FF920F931F93CF93DF93EC0181E026
:10025000888F9B8D8C8D981305C0E889F9898081E2
:1002600085FD26C0F62E0B8D10E00F5F1F4F0F731C
:100270001127E02E8C8DE8120CC00FB607FCFACFC8
:10028000E889F989808185FFF5CFCE010E94FE00C3
:10029000F1CF8B8DFE01E80FF11DE35AFF4FF08285
:1002A0009FB7F8940B8FEA89FB89808180620AC02E
:1002B0009FB7F894EE89FF896083E889F989808186
:1002C0008370806480839FBF81E090E0DF91CF9155
:1002D0001F910F91FF90EF900895CF93DF93EC0162
:1002E000888D8823C9F0EA89FB89808185FD05C056
:1002F000A889B9898C9186FD0FC00FB607FCF5CF90
:10030000808185FFF2CFA889B9898C9185FFEDCFD7
:10031000CE010E94FE00E7CFDF91CF91089580E0EB
:1003200090E0892B29F00E94F40081110C940000C8
:10033000089520919604309197042817390771F495
:100340009091940480919504981741F0E091940461
:10035000F0E0EC5AFB4F808190E008958FEF9FEF23
:10036000089508951F93CF93DF93DC015C968D91E0
:100370009C915D97009739F421E030E013963C930F
:100380002E9312973BC05196ED91FC915297509647
:100390002C915097322F30951FB75E964C915E97F7
:1003A000742F727041FD6095F8944081772311F0AD
:1003B000422B01C043234083EC012197F1F748E031
:1003C000508160FF02C0522B01C053235083EC01C7
:1003D0002197F1F76695415099F78081772319F0BD
:1003E0008323808302C0282B20831FBF5C968D91BE
:1003F0009C915D970197F1F781E090E0DF91CF91BB
:100400001F91089520919604309197042817390779
:1004100071F4809195042091940490E0805C9F4F4A
:10042000821B910960E470E00E94640D089580E0F1
:1004300090E0089520919604309197042817390789
:10044000B9F49091940480919504981789F0E09103
:100450009404F0E0EC5AFB4F80812091940430E04A
:100460002F5F3F4F2F7333272093940490E008951C
:100470008FEF9FEF0895089580E090E008950E9427
:10048000790F0F931F93CF93DF93EC0188819981AC
:10049000009729F02A813B812617370788F48B01C2
:1004A0006F5F7F4F0E94B30E009761F0998388833E
:1004B0001B830A832C813D81232B11F4FC011082C4
:1004C00081E001C080E0DF91CF911F910F910895ED
:1004D000EF92FF920F931F93CF93DF93EC0119825A
:1004E00018821B821A821D821C826115710549F1D6
:1004F0008B01FB0101900020E9F731977F01E61A9B
:10050000F70AB7010E9441022881398181110DC08B
:100510002115310519F0C9010E942A0E198218828D
:100520001D821C821B821A820CC0FD82EC82B801E3
:10053000C901DF91CF911F910F91FF90EF900C9423
:10054000870FDF91CF911F910F91FF90EF9008954A
:100550001F920F920FB60F9211242F933F938F93F8
:100560009F93AF93BF9380919D0490919E04A0911F
:100570009F04B091A00430919C0423E0230F2D37F9
:1005800020F40196A11DB11D05C026E8230F029697
:10059000A11DB11D20939C0480939D0490939E0403
:1005A000A0939F04B093A0048091A1049091A20411
:1005B000A091A304B091A4040196A11DB11D809344
:1005C000A1049093A204A093A304B093A404BF91A8
:1005D000AF919F918F913F912F910F900FBE0F90F0
:1005E0001F901895EF92FF920F931F93CF93DF9375
:1005F000EC01198218821B821A821D821C828617C6
:10060000970741F1FB01008111810115110511F1DD
:10061000E480F580B7010E9441022881398181116F
:100620000DC02115310519F0C9010E942A0E198249
:1006300018821D821C821B821A820CC0FD82EC82F1
:10064000B801C901DF91CF911F910F91FF90EF90F9
:100650000C94870FDF91CF911F910F91FF90EF9036
:100660000895DB0114964D915C9115976D917C91E5
:10067000DC01ED91FC910280F381E02D099461157C
:10068000710579F0FB0101900020E9F73197AF0186
:10069000461B570BDC01ED91FC910280F381E02DAC
:1006A000099480E090E008950C943F031F920F920C
:1006B0000FB60F9211242F933F934F935F936F9335
:1006C0007F938F939F93AF93BF93EF93FF9385EAAD
:1006D00094E00E94FE00FF91EF91BF91AF919F9136
:1006E0008F917F916F915F914F913F912F910F90DB
:1006F0000FBE0F901F9018951F920F920FB60F927A
:1007000011242F938F939F93EF93FF93E091B50460
:10071000F091B6048081E091BB04F091BC0482FDAD
:1007200012C090818091BE048F5F8F732091BF04AF
:10073000821751F0E091BE04F0E0EB55FB4F958F2E
:100740008093BE0401C08081FF91EF919F918F91B2
:100750002F910F900FBE0F901F9018951F920F9220
:100760000FB60F9211242F933F934F935F936F9384
:100770007F938F939F93AF93BF93EF93FF93E091FA
:100780009604F0919704309709F451C0968DA68590
:10079000B785858591FF04C09C91892329F447C0C2
:1007A0009C91892309F043C0A389B4899C918589D0
:1007B000809589238C93868997890197F1F7608DBD
:1007C000718DA685B785558538E020E0CB0101976E
:1007D000F1F7822F90E095958795282F4C9145232E
:1007E00009F02068315091F7868D81FD2095809128
:1007F000950490E001968F739927309194043817EF
:1008000049F0A0919504B0E0AC5ABB4F2C93809373
:10081000950403C0868D8160868F828D938D0197AC
:10082000F1F7A389B4899C918589892B8C93FF91D9
:10083000EF91BF91AF919F918F917F916F915F9158
:100840004F913F912F910F900FBE0F901F901895D1
:100850003FB7F8948091A1049091A204A091A304C1
:10086000B091A40426B5A89B05C02F3F19F00196AE
:10087000A11DB11D3FBFBA2FA92F982F8827820F26
:10088000911DA11DB11DBC01CD0142E0660F771F76
:10089000881F991F4A95D1F7089582E495E00E9438
:1008A00002021816190654F482E495E00E941A0216
:1008B000682F85EA94E00E942001EFCF08958F927F
:1008C0009F92AF92BF92CF92DF92EF92FF926C0114
:1008D0000E944D040E944D040D2C000CEE08FF08F0
:1008E0000E9428044B015C01C114D104E104F1040D
:1008F000F1F00E942804DC01CB0188199909AA09AA
:10090000BB09883E9340A105B10570F321E0C21AEE
:10091000D108E108F10888EE880E83E0981EA11C3A
:10092000B11CC114D104E104F10419F7DDCFFF902B
:10093000EF90DF90CF90BF90AF909F908F900C94EE
:100940004D0485EA94E00E946D0166E173E085EA5A
:1009500094E00E94540360EE71E082E495E00E940E
:10096000540384E690E00C945F0485EA94E00E94CE
:100970006D0162E373E085EA94E00E94540364E54C
:1009800073E082E495E00E94540388EE93E00C94B7
:100990005F04CF93DF93BC0185EA94E00E943103AA
:1009A000EC016DED71E085EA94E00E943F038C0F4D
:1009B0009D1FDF91CF910895CF93DF93BC0185EA0E
:1009C00094E00E943F03EC016DED71E085EA94E054
:1009D0000E943F038C0F9D1FDF91CF9108950F93CD
:1009E0001F93CF93DF93CDB7DEB760970FB6F89420
:1009F000DEBF0FBECDBF9F938F938DE593E09F9396
:100A00008F938E010F5F1F4F1F930F930E948E0FC6
:100A100085EA94E00E946D0164E673E085EA94E063
:100A20000E945403C8010E94DC046AE773E082E478
:100A300095E00E945403B80182E495E00E945403BB
:100A400084E690E00E945F040F900F900F900F904B
:100A50000F900F9060960FB6F894DEBF0FBECDBF1B
:100A6000DF91CF911F910F9108950F931F93CF9313
:100A7000DF93CDB7DEB760970FB6F894DEBF0FBE39
:100A8000CDBF9F938F938DE593E09F938F938E01BE
:100A90000F5F1F4F1F930F930E948E0F85EA94E004
:100AA0000E946D0162E873E085EA94E00E945403BD
:100AB000C8010E94DC0468E973E082E495E00E94CA
:100AC0005403B80182E495E00E94540384EF91E05E
:100AD0000E945F040F900F900F900F900F900F9057
:100AE00060960FB6F894DEBF0FBECDBFDF91CF91F9
:100AF0001F910F910895FC01808191810C942A0E21
:100B0000CF92DF92EF92FF920F931F93CF93DF93D9
:100B100000D000D000D0CDB7DEB76B017A018901DB
:100B2000BC01CE0101960E94F20285EA94E00E9487
:100B30006D0160EA73E085EA94E00E945403CE01FF
:100B400001960E94C90466EB73E082E495E00E947E
:100B50005403BE016F5F7F4F82E495E00E94310332
:100B600084E690E00E945F04CE0101960E947B051E
:100B7000B601CE0101960E94F20285EA94E00E943D
:100B80006D016EEB73E085EA94E00E945403CE01A0
:100B900001960E94C90464ED73E082E495E00E942E
:100BA0005403BE016F5F7F4F82E495E00E943103E2
:100BB00084E690E00E945F04CE0101960E947B05CE
:100BC000B701CE0101960E94F20285EA94E00E94EC
:100BD0006D016CED73E085EA94E00E945403CE0150
:100BE00001960E94C90462EF73E082E495E00E94DE
:100BF0005403BE016F5F7F4F82E495E00E94310392
:100C000084E690E00E945F04CE0101960E947B057D
:100C1000B801CE0101960E94F20285EA94E00E949A
:100C20006D016AEF73E085EA94E00E945403CE01FF
:100C300001960E94C90460E174E082E495E00E949C
:100C40005403BE016F5F7F4F82E495E00E94310341
:100C500084E690E00E945F04CE0101960E947B052D
:100C600026960FB6F894DEBF0FBECDBFDF91CF91B1
:100C70001F910F91FF90EF90DF90CF9008954F92CA
:100C80005F926F927F928F929F92AF92BF92CF921C
:100C9000DF92EF92FF920F931F93CF93DF93CDB725
:100CA000DEB7A1970FB6F894DEBF0FBECDBF8C01A3
:100CB0006B01770FEE08FF08F7FE2FC0DC01ED9106
:100CC000FC910190F081E02D6DE209955C012227F5
:100CD0003327A9012C193D094E095F0919A2FE010C
:100CE000B1967F019AE0492E512C612C712CCA01DA
:100CF000B901A30192010E94330D605DD7016E938B
:100D00007D01211531054105510589F7BD01C80156
:100D10000E943F038A0D9B1D1EC0A701960119A2C8
:100D2000FE01B1967F018AE0882E912CA12CB12C76
:100D3000CA01B901A50194010E94330D605DD7017C
:100D40006E937D01211531054105510589F7BD01DE
:100D5000C8010E943F03A1960FB6F894DEBF0FBEF4
:100D6000CDBFDF91CF911F910F91FF90EF90DF905A
:100D7000CF90BF90AF909F908F907F906F905F903B
:100D80004F900895CF93DF93BC0185EA94E00E94D1
:100D90003F06EC016DED71E085EA94E00E943F03AF
:100DA0008C0F9D1FDF91CF910895CF93DF9397FF15
:100DB00002C080E090E0EC010A9714F0C9E0D0E0B6
:100DC00085EA94E00E946D0168E174E085EA94E0B0
:100DD0000E945403CE010E94C2066EE274E082E4D7
:100DE00095E00E945403BE0182E495E00E943F0614
:100DF00084E690E0DF91CF910C945F0485EA94E063
:100E00000E946D0166E374E085EA94E00E94540359
:100E100081E090E00E94C2066CE474E082E495E018
:100E20000E94540361E070E082E495E00E943F0676
:100E300084E690E00C945F042FB7F89460919D04D1
:100E400070919E0480919F049091A0042FBF0895FB
:100E5000CF93DF93CDB7DEB7C654D1090FB6F89460
:100E6000DEBF0FBECDBF789484B5826084BD84B5EB
:100E7000816084BD85B5826085BD85B5816085BD95
:100E800080916E00816080936E001092810080914D
:100E900081008260809381008091810081608093D5
:100EA0008100809180008160809380008091B100FA
:100EB00084608093B1008091B00081608093B00025
:100EC00080917A00846080937A0080917A008260B9
:100ED00080937A0080917A00816080937A0080917B
:100EE0007A00806880937A001092C100E091B50486
:100EF000F091B60482E08083E091B104F091B204F5
:100F00001082E091B304F091B40480E180831092E8
:100F1000BD04E091B904F091BA0486E08083E091C9
:100F2000B704F091B804808180618083E091B704B8
:100F3000F091B804808188608083E091B704F091DB
:100F4000B804808180688083E091B704F091B80490
:100F500080818F7D80836EE271E085EA94E00E945B
:100F6000540389E391E00E94DC0461E771E085EAC3
:100F700094E00E9454038CE791E00E94DC0487E334
:100F800091E00E94DC0410925D0510925C051092C5
:100F90005B0510925A0510925905109258058DE97B
:100FA00091E090935F0580935E0590914E05963198
:100FB00008F058C02DEB30E03093590520935805C8
:100FC0002BE931E030935B0520935A052CE231E0A8
:100FD00030935D0520935C0540916800983058F08F
:100FE00031E09E3008F430E021E0822F01C0880F0C
:100FF0003A95EAF701C084E0842B8093680098302A
:1010000038F09E3040F0963148F020E030E008C0E3
:101010002DE630E005C02BE630E002C02CE630E0E3
:101020003093560520935505983030F481E001C087
:10103000880F9A95EAF70EC0292F30E09E3018F4F9
:101040002850310902C02E50310981E001C0880FBB
:101050002A95EAF78093570580915E0590915F0588
:101060000197F1F780915C0590915D05892B49F11D
:10107000E0919604F091970425E0E234F20709F13B
:10108000309739F0A389B4899C918589809589230B
:101090008C93809160058E7F8093600510929504FB
:1010A0001092940482E495E09093970480939604C0
:1010B000E0915505F0915605908180915705892B57
:1010C000808368E871E085EA94E00E94540380E838
:1010D00095E20E94C2068DED91E00E94DC048DE94C
:1010E00091E00E94DC0460EE71E082E495E00E94F1
:1010F00054030E94A1040E94B5040E94A10463EE5F
:1011000071E08E010F5F1F4FC8010E94680285EADF
:1011100094E00E946D016BEE71E085EA94E00E941C
:101120005403C8010E94C90461E072E082E495E0C2
:101130000E945403B80182E495E00E94310384E6E2
:1011400090E00E945F04C8010E947B0580EF9FEF42
:101150000E94EF0481EE9FEF0E94350569E072E086
:10116000C8010E94680262E172E0CE0185960E9489
:1011700068026BE172E0CE018B960E94680264E225
:1011800072E0CE01C1960E9468029801AE014B5DEB
:101190005F4FBE01655D7F4FCE01C1960E94800505
:1011A000CE01C1960E947B05CE018B960E947B05E5
:1011B000CE0185960E947B05C8010E947B0585EAC9
:1011C00094E00E946D016DE272E085EA94E00E9475
:1011D000540383E090E00E94C20663E472E082E47C
:1011E00095E00E94540363E070E082E495E00E9481
:1011F0003F0684E690E00E945F0485E090E00E9454
:10120000D50685EA94E00E946D016BE472E085EA00
:1012100094E00E94540382E090E00E94C20661E6DE
:1012200072E082E495E00E94540362E070E082E4A0
:1012300095E00E943F0684E690E00E945F0485EA04
:1012400094E00E946D0169E672E085EA94E00E94F4
:10125000540381E090E00E94C2066FE772E082E4EE
:1012600095E00E94540361E070E082E495E00E9402
:101270003F0684E690E00E945F040E94FE060E9402
:10128000B5040E941C07609398047093990480939E
:101290009A0490939B048DED91E00E94DC0487E812
:1012A00092E00E94DC0480E480937C0080917A00CC
:1012B000806480937A0080917A0086FDFCCF6091F3
:1012C00078008091790070E0782B072E000C880B55
:1012D000990B611571058105910511F00E94C10CF2
:1012E0008EEFC82EDD24DA94E12CF12C88248A9428
:1012F000982CA12CB12C29EC222E22E0322ECE01EA
:101300000A969EAF8DAF099621969FAF8EAF21971B
:10131000099623969FAF8EAF23970E944D040E949B
:101320001C07409098045090990460909A04709023
:101330009B04DC01CB0184199509A609B709813109
:101340009742A105B10508F433C10E94730C2B012B
:101350003C010E94730C27966CAF7DAF8EAF9FAFA0
:101360002797C301B201A70196010E94CA0C9F935F
:101370008F937F936F9327966CAD7DAD8EAD9FADB0
:101380002797A50194010E94CA0C9F938F937F9386
:101390006F933F922F921F930F930E948E0F0E9484
:1013A000730C2B013C010E94730C27966CAF7DAF30
:1013B0008EAF9FAF2797C301B201A70196010E948C
:1013C000CA0C9F938F937F936F9327966CAD7DADDF
:1013D0008EAD9FAD2797A50194010E94CA0C9F93E3
:1013E0008F937F936F933F922F928EAD8F939DAD8E
:1013F0009F930E948E0F0E94730C2B013C010E9450
:10140000730C27966CAF7DAF8EAF9FAF2797C3014C
:10141000B201A70196010E94CA0C9F938F937F93FC
:101420006F9327966CAD7DAD8EAD9FAD2797A501CF
:1014300094010E94CA0C9F938F937F936F933F9266
:101440002F9221962FAD21972F938FAD8F930E94CE
:101450008E0F0FB6F894DEBF0FBECDBF0E94730C87
:101460002B013C010E94730C27966CAF7DAF8EAFB1
:101470009FAF2797C301B201A70196010E94CA0C32
:101480009F938F937F936F9327966CAD7DAD8EADB9
:101490009FAD2797A50194010E94CA0C9F938F933B
:1014A0007F936F933F922F9223969FAD23979F93A5
:1014B00022962FAD22972F930E948E0F8DED91E0F3
:1014C0000E94DC0484ED92E00E94DC040E94A104EE
:1014D0000E94730CA70196010E94CA0CCB010E94C6
:1014E000EF040E94730CA70196010E94CA0CCB0165
:1014F0000E943505BE01645E7F4FCE01C7960E94F3
:101500006802BE016D5E7F4FCE01C1960E946802E7
:10151000BE01665F7F4FCE018B960E946802B801C4
:10152000CE0185960E9468029E01295C3F4FAE0164
:101530004F5C5F4FBE01655D7F4FCE0185960E9477
:101540008005CE0185960E947B05CE018B960E9478
:101550007B05CE01C1960E947B05CE01C7960E94F5
:101560007B050E94730C29E030E040E050E00E94CF
:10157000CA0CCB010E94D5060E94FE060E94B5044B
:101580008DED91E00E94DC0487E892E00E94DC048B
:101590000E941C07609398047093990480939A04A6
:1015A00090939B040FB6F894DEBF0FBECDBF02C070
:1015B0000E941C070E948F01B0CE80E291E09093C0
:1015C000430580934205809196049091970482543C
:1015D000954071F4E0915505F09156059081809108
:1015E0005705809589238083109297041092960462
:1015F000089590E0FC01E859FF4F2491FC01E25569
:10160000FF4F3491FC01E656FF4FE491EE2309F4BD
:101610003CC0222339F1233091F038F42130A9F075
:10162000223001F584B58F7D12C0273091F028302B
:10163000A1F02430B9F4809180008F7D03C08091A7
:1016400080008F77809380000DC084B58F7784BD34
:1016500009C08091B0008F7703C08091B0008F7D6A
:101660008093B000F0E0EE0FFF1FE057FF4FA59111
:10167000B4919FB7F894611104C08C9130953823D0
:1016800002C0EC913E2B3C939FBF0895CF93DF9314
:101690001092A8041092A70488EE93E0A0E0B0E0B6
:1016A0008093A9049093AA04A093AB04B093AC04D4
:1016B0002EE031E03093A6042093A50425EC30E021
:1016C0003093B2042093B10424EC30E03093B4049E
:1016D0002093B30420EC30E03093B6042093B5049B
:1016E00021EC30E03093B8042093B70422EC30E0D2
:1016F0003093BA042093B90426EC30E03093BC0454
:101700002093BB041092BE041092BF041092C00438
:101710001092C1041092450510924405809346052D
:1017200090934705A0934805B093490580E291E066
:1017300090934305809342051092590510925805E5
:1017400010925B0510925A0510925D0510925C058F
:1017500010925F0510925E05609160056E7F6D7F4F
:10176000609360056695617081E0682789E00E945A
:10177000F90AE7EBF0E02491E3EAF0E084918823B2
:1017800099F090E0880F991FFC01EA57FF4FA5914F
:10179000B491FC01E057FF4F859194918FB7F89475
:1017A000EC91E22BEC938FBFE7EBF0E0E491E09358
:1017B0005205E3EAF0E0E491F0E0EE0FFF1FE0579E
:1017C000FF4F859194919093540580935305E6EBD8
:1017D000F0E02491E2EAF0E084918823C1F090E007
:1017E000880F991FFC01EA57FF4FC591D491FC0166
:1017F000E057FF4FA591B4919FB7F8948881E22FED
:10180000E0958E2388838C91E823EC939FBF809191
:10181000600581FD04C061E088E00E94F90A88E06B
:1018200080934E05E6EBF0E0E491E0934F05E2EAA9
:10183000F0E0E491F0E0EE0FFF1FE458FF4F8591D8
:1018400094919093510580935005DF91CF91089525
:101850008F929F92AF92BF92CF92DF92EF92FF92C0
:10186000CF93DF93EC01688179818A819B81611537
:1018700071058105910521F464E279ED8BE597E02E
:101880002DE133EF41E050E00E94CA0C49015A01BA
:101890009B01AC01A7EAB1E40E94E90C6B017C0159
:1018A000ACEEB4EFA50194010E94F70CDC01CB0172
:1018B0008C0D9D1DAE1DBF1DB7FF03C00197A10973
:1018C000B04888839983AA83BB83BC01CD019F77ED
:1018D000DF91CF91FF90EF90DF90CF90BF90AF90CE
:1018E0009F908F9008958F929F92AF92BF92CF92C8
:1018F000DF92EF92FF92609100017091010180915F
:10190000020190910301611571058105910521F492
:1019100064E279ED8BE597E02DE133EF41E050E0B3
:101920000E94CA0C49015A019B01AC01A7EAB1E42B
:101930000E94E90C6B017C01ACEEB4EFA5019401AF
:101940000E94F70CDC01CB018C0D9D1DAE1DBF1D4F
:10195000B7FF03C00197A109B0488093000190939D
:101960000101A0930201B0930301BC01CD019F7757
:10197000FF90EF90DF90CF90BF90AF909F908F90AF
:101980000895609300017093010180930201909388
:1019900003010895052E97FB1EF400940E94E10CAC
:1019A00057FD07D00E94330D07FC03D04EF40C9472
:1019B000E10C50954095309521953F4F4F4F5F4F2B
:1019C000089590958095709561957F4F8F4F9F4FAB
:1019D00008950E94550DA59F900DB49F900DA49F52
:1019E000800D911D11240895B7FF0C94E90C0E94FD
:1019F000E90C821B930B08952F923F924F925F92B6
:101A00006F927F928F929F92AF92BF92CF92DF920E
:101A1000EF92FF920F931F93CF93DF93CDB7DEB773
:101A2000CA1BDB0B0FB6F894DEBF0FBECDBF099407
:101A30002A88398848885F846E847D848C849B845E
:101A4000AA84B984C884DF80EE80FD800C811B816C
:101A5000AA81B981CE0FD11D0FB6F894DEBF0FBE9B
:101A6000CDBFED010895A1E21A2EAA1BBB1BFD01FB
:101A70000DC0AA1FBB1FEE1FFF1FA217B307E4076D
:101A8000F50720F0A21BB30BE40BF50B661F771FC5
:101A9000881F991F1A9469F76095709580959095A5
:101AA0009B01AC01BD01CF010895A29FB001B39F7E
:101AB000C001A39F700D811D1124911DB29F700D57
:101AC000811D1124911D089597FB072E16F4009493
:101AD00007D077FD09D00E94780D07FC05D03EF4B1
:101AE000909581959F4F0895709561957F4F0895CA
:101AF000AA1BBB1B51E107C0AA1FBB1FA617B70734
:101B000010F0A61BB70B881F991F5A95A9F780954F
:101B10009095BC01CD010895EE0FFF1F0590F49143
:101B2000E02D09940F931F93CF93DF93823091059B
:101B300010F482E090E0E0916305F091640520E00C
:101B400030E0A0E0B0E0309719F14081518102818E
:101B5000138148175907C8F08417950769F410973F
:101B600031F012960C93129713961C9327C0009392
:101B700063051093640522C02115310519F0421741
:101B8000530718F49A01BD01EF01DF01F801DBCF23
:101B900021153105F9F0281B390B2430310580F46B
:101BA0008A819B816115710521F0FB0193838283FA
:101BB00004C09093640580936305FE01329644C08F
:101BC000FE01E20FF31F8193919322503109398373
:101BD00028833AC02091610530916205232B41F49E
:101BE0002091060130910701309362052093610531
:101BF00020910401309105012115310541F42DB7E3
:101C00003EB74091080150910901241B350BE0912A
:101C10006105F0916205E217F307A0F42E1B3F0B5C
:101C20002817390778F0AC014E5F5F4F241735074E
:101C300048F04E0F5F1F50936205409361058193FA
:101C4000919302C0E0E0F0E0CF01DF91CF911F91CE
:101C50000F910895CF93DF93009709F481C0FC01A1
:101C6000329713821282A0916305B0916405109798
:101C700081F420813181820F931F20916105309181
:101C800062052817390751F5F0936205E093610565
:101C900067C0ED0120E030E0CE17DF0740F44A8155
:101CA0005B819E0141155105F1F0EA01F5CFD38327
:101CB000C28340815181840F951FC817D90759F4F9
:101CC00088819981840F951F0296918380838A81F0
:101CD0009B81938382832115310529F4F093640558
:101CE000E09363053DC0E901FB83EA834991599183
:101CF000C40FD51FEC17FD0761F480819181840F1B
:101D0000951F0296E90199838883828193819B8341
:101D10008A83E0E0F0E012968D919C9113970097F2
:101D200019F0FD01DC01F7CF8D919C9111979D0178
:101D30002E5F3F4F820F931F209161053091620506
:101D40002817390769F4309729F410926405109226
:101D5000630502C013821282B0936205A0936105ED
:101D6000DF91CF910895A0E0B0E0E9EBFEE00C94A4
:101D7000000DEC01009721F4CB010E94920DB4C03C
:101D8000FC01E60FF71F9C0122503109E217F3070F
:101D900008F4A8C0D9010D911C91119706171707D7
:101DA000B0F00530110508F49BC0C80104978617F0
:101DB000970708F495C002501109061B170B0193F1
:101DC00011936D937C93CF010E942A0E89C05B0111
:101DD000A01AB10A4C01800E911EA0916305B0912A
:101DE0006405612C712CE12CF12C109709F446C08C
:101DF0008D919C911197A815B905B1F56C0142E040
:101E0000C40ED11CCA14DB0478F14C018A189B085B
:101E1000640142E0C40ED11C1296BC901297139636
:101E2000AC91B5E0CB16D10440F0B282A38391828D
:101E30008082D9016D937C9309C00E5F1F4F800F84
:101E4000911FF90191838083EB2DFA2FE114F104A6
:101E500031F0D7011396FC93EE93129741C0F093A3
:101E60006405E09363053CC06816790608F43C01FC
:101E70007D0112960D90BC91A02DB7CF8091610588
:101E80009091620588169906E1F466167706C8F403
:101E90008091040190910501009741F48DB79EB7A0
:101EA0004091080150910901841B950BE817F9072F
:101EB000C8F4F0936205E0936105F90171836083D2
:101EC0000FC0CB010E94920D7C01009759F0A80130
:101ED000BE010E947E0FCE010E942A0EC70104C0DF
:101EE000CE0102C080E090E0CDB7DEB7EEE00C940A
:101EF0001C0D81E090E0F8940C944112FB01DC0190
:101F000002C001900D9241505040D8F70895FB0156
:101F1000DC0101900D920020E1F70895AEE0B0E001
:101F2000E4E9FFE00C940A0D0D891E8986E08C839C
:101F30001A8309838FEF9FE79E838D83AE01475EEF
:101F40005F4F6F89788DCE0101960E94B00FEF81AF
:101F5000F885E00FF11F10822E96E4E00C94260D18
:101F6000ABE0B0E0E6EBFFE00C94FC0C6C017B0115
:101F70008A01FC0117821682838181FFCCC1CE01C8
:101F800001963C01F6019381F70193FD859193FF42
:101F900081917F01882309F4BAC1853239F493FD18
:101FA000859193FF81917F01853229F4B60190E0FC
:101FB0000E94A711E7CF912C212C312CFFE1F315C2
:101FC000D8F08B3279F038F4803279F08332A1F492
:101FD000232D20611DC08D3261F0803369F4232DE3
:101FE000216016C0832D8260382EE32DE4603E2EE2
:101FF0002AC0F32DF8601DC037FC2DC020ED280F3E
:102000002A3040F08E32B9F436FC81C1232D206491
:10201000322E19C036FE06C08AE0989E200D11248B
:10202000922E11C0EAE02E9E200D1124222EF32DB7
:10203000F0623F2E08C08C3621F4832D8068382E44
:1020400002C0883641F4F70193FD859193FF819199
:102050007F018111B3CF982F9F7D9554933028F441
:102060000C5F1F4F9FE399830DC0833631F0833798
:1020700071F0833509F059C021C0F801808189834E
:102080000E5F1F4F88248394912C530113C02801A5
:10209000F2E04F0E511CF801A080B18036FE03C063
:1020A000692D70E002C06FEF7FEFC5010E949C11A7
:1020B0004C018201F32DFF773F2E16C0280122E04C
:1020C000420E511CF801A080B18036FE03C0692D7C
:1020D00070E002C06FEF7FEFC5010E9491114C01CB
:1020E000F32DF0683F2E820133FC1BC0822D90E05F
:1020F00088169906B0F4B60180E290E00E94A7111C
:102100002A94F4CFF50137FC859137FE81915F0168
:10211000B60190E00E94A71121102A9421E0821AB2
:1021200091088114910471F7E8C0843611F0893662
:1021300041F5F80137FE07C060817181828193818A
:102140000C5F1F4F08C060817181072E000C880B47
:10215000990B0E5F1F4FF32DFF763F2E97FF09C09F
:1021600090958095709561957F4F8F4F9F4FF06848
:102170003F2E2AE030E0A3010E94E311882E86184A
:1021800045C0853731F4232D2F7EB22E2AE030E072
:1021900025C0932D997FB92E8F36C1F018F488355C
:1021A00079F0B5C0803719F0883721F0B0C0E92F39
:1021B000E061BE2EB4FE0DC0FB2DF460BF2E09C041
:1021C00034FE0AC0292F2660B22E06C028E030E077
:1021D00005C020E130E002C020E132E0F801B7FEA6
:1021E00007C060817181828193810C5F1F4F06C09F
:1021F0006081718180E090E00E5F1F4FA3010E941B
:10220000E311882E8618FB2DFF773F2E36FE0DC07A
:10221000232D2E7FA22E891458F434FE0BC032FCDD
:1022200009C0832D8E7EA82E05C0B82CA32C03C018
:10223000B82C01C0B92CA4FE0FC0FE01E80DF11DA1
:102240008081803321F49A2D997EA92E09C0A2FEA7
:1022500006C0B394B39404C08A2D867809F0B39471
:10226000A3FC11C0A0FE06C0B21488F4280C922C66
:102270009B180EC0B21460F4B60180E290E00E9498
:10228000A711B394F7CFB21418F42B1802C0982CEE
:10229000212CA4FE10C0B60180E390E00E94A7119B
:1022A000A2FE17C0A1FC03C088E790E002C088E549
:1022B00090E0B6010CC08A2D867859F0A1FE02C0CC
:1022C0008BE201C080E2A7FC8DE2B60190E00E94A3
:1022D000A711891438F4B60180E390E00E94A71199
:1022E0009A94F7CF8A94F301E80DF11D8081B6012D
:1022F00090E00E94A7118110F5CF222009F442CE70
:10230000B60180E290E00E94A7112A94F6CFF60170
:102310008681978102C08FEF9FEF2B96E2E10C94AC
:10232000180DFC010590615070400110D8F78095A0
:1023300090958E0F9F1F0895FC0161507040019091
:102340000110D8F7809590958E0F9F1F08950F93D9
:102350001F93CF93DF93FB01238121FD03C08FEFF8
:102360009FEF2CC022FF16C0468157812481358102
:102370004217530744F4A081B1819D012F5F3F4F65
:10238000318320838C93268137812F5F3F4F3783A2
:10239000268314C08B01EC01FB010084F185E02D44
:1023A0000995892BE1F6D80116968D919C91179786
:1023B000019617969C938E931697CE01DF91CF913D
:1023C0001F910F910895FA01AA27283051F1203169
:1023D00081F1E8946F936E7F6E5F7F4F8F4F9F4FB9
:1023E000AF4FB1E03ED0B4E03CD0670F781F891FFB
:1023F0009A1FA11D680F791F8A1F911DA11D6A0FC9
:10240000711D811D911DA11D20D009F468943F917B
:102410002AE0269F11243019305D3193DEF6CF017A
:102420000895462F4770405D4193B3E00FD0C9F740
:10243000F6CF462F4F70405D4A3318F0495D31FDAD
:102440004052419302D0A9F7EACFB4E0A695979500
:10245000879577956795BA95C9F7009761057105D6
:1024600008959B01AC010A2E069457954795379520
:102470002795BA95C9F7620F731F841F951FA01D7A
:10248000089510E0C2E6D0E004C0FE010E948C0D69
:0C2490002196C336D107C9F7F894FFCF9E
:10249C000100000000006505800000000000200124
:1024AC008D00B7006D01E800C600DA0000000000E6
:1024BC00B2018D003C02B10102021A029901536B68
:1024CC00657463683A202020002F746D702F617240
:1024DC006475696E6F5F6D6F6469666965645F735F
:1024EC006B657463685F3831383733302F44696EED
:1024FC00616D69635F69426561636F6E2E696E6FB2
:10250C000055706C6F616465643A20004A616E20FE
:10251C003135203230313900425473657269616C47
:10252C00207374617274656420617420000D0A2E2E
:10253C002E2E2E2E2E2E2E2E2E2E2E2E2E2E2E2EAF
:10254C002E20496E697469616C697A696E672070B6
:10255C006172616D6574657273202E2E2E2E2E2E77
:10256C002E2E2E2E2E2E2E2E2E2E2E2E200D0A0000
:10257C0041540068616E64696B6F000D0A3E2073F4
:10258C00656E64696E6720636F6D6D616E64203A71
:10259C002041542B4E414D4500414630353939339D
:1025AC003500384630433732304500423634343407
:1025BC00353230003734323738424441000D0A3E50
:1025CC002073656E64696E6720636F6D6D616E64F8
:1025DC00203A2041542B41445459000D0A3E20739B
:1025EC00656E64696E6720636F6D6D616E64203A11
:1025FC002041542B504F5745000D0A3E2073656EF9
:10260C0064696E6720636F6D6D616E64203A204162
:10261C00542B5057524D000D0A2E2E2E2E2E2E2E90
:10262C002E2E2E2E2E2E2E2E2E2E2E2E2E2E2E2EBE
:10263C002E2E2E205374616E6279202E2E2E2E2E6D
:10264C002E2E2E2E2E2E2E2E2E2E2E2E2E2E2E2E9E
:10265C002E2E2E2E2E200D0A002530346C582530AF
:10266C00346C58000D0A2E2E2E2E2E2E2E2E2E2E83
:10267C002E2E2E2E2E2E2E2E2052616E646F6D69F4
:10268C007A696E6720706172616D65746572732012
:10269C002E2E2E2E2E2E2E2E2E2E2E2E2E2E2E2E4E
:1026AC002E2E200D0A000D0A3E2073656E64696E95
:1026BC006720636F6D6D616E64203A204154200D6C
:1026CC000A000D0A3E2073656E64696E6720636FA5
:1026DC006D6D616E64203A2041542B524553455424
:1026EC00200D0A0041542B52455345540030782597
:1026FC00303458000D0A3E2073656E64696E672095
:10270C00636F6D6D616E64203A2041542B4D4152C4
:10271C004A000D0A3E2073656E64696E6720636F14
:10272C006D6D616E64203A2041542B4D494E4F0023
:10273C000D0A3E2073656E64696E6720636F6D6D64
:10274C00616E64203A2041542B49424530000D0AF9
:10275C003E2073656E64696E6720636F6D6D616E8C
:10276C0064203A2041542B49424531000D0A3E2049
:10277C0073656E64696E6720636F6D6D616E642046
:10278C003A2041542B49424532000D0A3E207365D4
:10279C006E64696E6720636F6D6D616E64203A20A4
:1027AC0041542B49424533000D0A3E2073656E643B
:1027BC00696E6720636F6D6D616E64203A204154C1
:1027CC002B41445649000D0A3E2073656E64696EB8
:1027DC006720636F6D6D616E64203A2041542B4904
:0427EC004245410021
:107E0000112484B714BE81FFF0D085E080938100F7
:107E100082E08093C00088E18093C10086E0809377
:107E2000C20080E18093C4008EE0C9D0259A86E02C
:107E300020E33CEF91E0309385002093840096BBD3
:107E4000B09BFECF1D9AA8958150A9F7CC24DD24C4
:107E500088248394B5E0AB2EA1E19A2EF3E0BF2EE7
:107E6000A2D0813461F49FD0082FAFD0023811F036
:107E7000013811F484E001C083E08DD089C08234E0
:107E800011F484E103C0853419F485E0A6D080C0E4
:107E9000853579F488D0E82EFF2485D0082F10E0AE
:107EA000102F00270E291F29000F111F8ED06801E7
:107EB0006FC0863521F484E090D080E0DECF843638
:107EC00009F040C070D06FD0082F6DD080E0C81688
:107ED00080E7D80618F4F601B7BEE895C0E0D1E017
:107EE00062D089930C17E1F7F0E0CF16F0E7DF06D8
:107EF00018F0F601B7BEE89568D007B600FCFDCFD4
:107F0000A601A0E0B1E02C9130E011968C91119780
:107F100090E0982F8827822B932B1296FA010C0160
:107F200087BEE89511244E5F5F4FF1E0A038BF0790
:107F300051F7F601A7BEE89507B600FCFDCF97BE46
:107F4000E89526C08437B1F42ED02DD0F82E2BD052
:107F50003CD0F601EF2C8F010F5F1F4F84911BD097
:107F6000EA94F801C1F70894C11CD11CFA94CF0C13
:107F7000D11C0EC0853739F428D08EE10CD085E9AC
:107F80000AD08FE07ACF813511F488E018D01DD067
:107F900080E101D065CF982F8091C00085FFFCCF94
:107FA0009093C60008958091C00087FFFCCF809118
:107FB000C00084FD01C0A8958091C6000895E0E648
:107FC000F0E098E1908380830895EDDF803219F02E
:107FD00088E0F5DFFFCF84E1DECF1F93182FE3DFCA
:107FE0001150E9F7F2DF1F91089580E0E8DFEE27F6
:047FF000FF270994CA
:027FFE00040479
:0400000300007E007B
:00000001FF
